{
  "contractName": "ProjectManager",
  "abi": [
    {
      "inputs": [],
      "payable": false,
      "stateMutability": "nonpayable",
      "type": "constructor"
    },
    {
      "anonymous": false,
      "inputs": [
        {
          "indexed": false,
          "name": "project",
          "type": "address"
        }
      ],
      "name": "projectAdded",
      "type": "event"
    },
    {
      "anonymous": false,
      "inputs": [
        {
          "indexed": false,
          "name": "project",
          "type": "address"
        }
      ],
      "name": "projectFinalized",
      "type": "event"
    },
    {
      "anonymous": false,
      "inputs": [
        {
          "indexed": false,
          "name": "project",
          "type": "address"
        }
      ],
      "name": "projectCancelled",
      "type": "event"
    },
    {
      "constant": true,
      "inputs": [],
      "name": "isPMContract",
      "outputs": [
        {
          "name": "isValidPMContract",
          "type": "bool"
        }
      ],
      "payable": false,
      "stateMutability": "pure",
      "type": "function"
    },
    {
      "constant": false,
      "inputs": [
        {
          "name": "name",
          "type": "string"
        }
      ],
      "name": "addProject",
      "outputs": [
        {
          "name": "addressContract",
          "type": "address"
        }
      ],
      "payable": false,
      "stateMutability": "nonpayable",
      "type": "function"
    },
    {
      "constant": true,
      "inputs": [],
      "name": "getProjects",
      "outputs": [
        {
          "name": "projectsData",
          "type": "string"
        },
        {
          "name": "isUserOwner",
          "type": "bool"
        }
      ],
      "payable": false,
      "stateMutability": "view",
      "type": "function"
    },
    {
      "constant": true,
      "inputs": [
        {
          "name": "_project",
          "type": "address"
        }
      ],
      "name": "getProject",
      "outputs": [
        {
          "name": "projectsData",
          "type": "string"
        }
      ],
      "payable": false,
      "stateMutability": "view",
      "type": "function"
    },
    {
      "constant": false,
      "inputs": [
        {
          "name": "_addr",
          "type": "address"
        }
      ],
      "name": "finalizeProject",
      "outputs": [],
      "payable": false,
      "stateMutability": "nonpayable",
      "type": "function"
    },
    {
      "constant": false,
      "inputs": [
        {
          "name": "_addr",
          "type": "address"
        }
      ],
      "name": "deleteProject",
      "outputs": [],
      "payable": false,
      "stateMutability": "nonpayable",
      "type": "function"
    }
  ],
  "bytecode": "0x608060405234801561001057600080fd5b5060008054600160a060020a031916331790556134ff806100326000396000f3fe608060405234801561001057600080fd5b506004361061008f576000357c010000000000000000000000000000000000000000000000000000000090048063dcc601281161006d578063dcc60128146101cb578063dd323c7714610256578063f9870705146102725761008f565b80630ed047d4146100945780632200e21e1461016357806353d4906714610198575b600080fd5b61013a600480360360208110156100aa57600080fd5b8101906020810181356401000000008111156100c557600080fd5b8201836020820111156100d757600080fd5b803590602001918460018302840111640100000000831117156100f957600080fd5b91908080601f01602080910402602001604051908101604052809392919081815260200183838082843760009201919091525092955061031a945050505050565b6040805173ffffffffffffffffffffffffffffffffffffffff9092168252519081900360200190f35b6101966004803603602081101561017957600080fd5b503573ffffffffffffffffffffffffffffffffffffffff1661044f565b005b610196600480360360208110156101ae57600080fd5b503573ffffffffffffffffffffffffffffffffffffffff16610539565b6101d3610619565b604051808060200183151515158152602001828103825284818151815260200191508051906020019080838360005b8381101561021a578181015183820152602001610202565b50505050905090810190601f1680156102475780820380516001836020036101000a031916815260200191505b50935050505060405180910390f35b61025e610bd8565b604080519115158252519081900360200190f35b6102a56004803603602081101561028857600080fd5b503573ffffffffffffffffffffffffffffffffffffffff16610bdd565b6040805160208082528351818301528351919283929083019185019080838360005b838110156102df5781810151838201526020016102c7565b50505050905090810190601f16801561030c5780820380516001836020036101000a031916815260200191505b509250505060405180910390f35b6000610324610ce6565b6000805460405173ffffffffffffffffffffffffffffffffffffffff90911690849061034f90610ff2565b73ffffffffffffffffffffffffffffffffffffffff83168152604060208083018281528451928401929092528351606084019185019080838360005b838110156103a357818101518382015260200161038b565b50505050905090810190601f1680156103d05780820380516001836020036101000a031916815260200191505b509350505050604051809103906000f0801580156103f2573d6000803e3d6000fd5b509050610400600182610d58565b6040805173ffffffffffffffffffffffffffffffffffffffff8316815290517fe7805f3232c5b05203bcd4f973c8d3b8363a9eb47c995479fba7bb1f2395824b9181900360200190a192915050565b610457610ce6565b61046081610dfe565b60008190508073ffffffffffffffffffffffffffffffffffffffff1663ea8a1af06040518163ffffffff167c0100000000000000000000000000000000000000000000000000000000028152600401600060405180830381600087803b1580156104c957600080fd5b505af11580156104dd573d6000803e3d6000fd5b505050506104ec600182610f4a565b6040805173ffffffffffffffffffffffffffffffffffffffff8416815290517f4f055c3563024959e775ed8bc44c05f2430663a39003cb07be342cbb0dd9365b9181900360200190a15050565b610541610ce6565b61054a81610dfe565b60008190508073ffffffffffffffffffffffffffffffffffffffff16634bb278f36040518163ffffffff167c0100000000000000000000000000000000000000000000000000000000028152600401600060405180830381600087803b1580156105b357600080fd5b505af11580156105c7573d6000803e3d6000fd5b50506040805173ffffffffffffffffffffffffffffffffffffffff8616815290517f1660bf8ceedddf8f2369f560a9108c2da8fc2557f843cc608788b3e996c5f0ee9350908190036020019150a15050565b600160009081527fa6eef7e35abe7026729641147f7915573c7e97b47efa546f5f6e3230263bcb496020527fccfe08badd7fbee8a36c1d2ba2b3090f679bf1a4970d307adddb9d938fc7bd72546060919073ffffffffffffffffffffffffffffffffffffffff166106db57505060005460408051808201909152600281527f5b5d00000000000000000000000000000000000000000000000000000000000060208201529073ffffffffffffffffffffffffffffffffffffffff163314610bd4565b600160009081527fa6eef7e35abe7026729641147f7915573c7e97b47efa546f5f6e3230263bcb496020527fccfe08badd7fbee8a36c1d2ba2b3090f679bf1a4970d307adddb9d938fc7bd7254604080517f6a88a8e9000000000000000000000000000000000000000000000000000000008152336004820152905173ffffffffffffffffffffffffffffffffffffffff9092169283926060928492636a88a8e992602480840193829003018186803b15801561079757600080fd5b505afa1580156107ab573d6000803e3d6000fd5b505050506040513d6000823e601f3d908101601f1916820160405260208110156107d457600080fd5b8101908080516401000000008111156107ec57600080fd5b820160208101848111156107ff57600080fd5b815164010000000081118282018710171561081957600080fd5b5050929190505050905060608160405160200180807f5b0000000000000000000000000000000000000000000000000000000000000081525060010182805190602001908083835b602083106108805780518252601f199092019160209182019101610861565b51815160209384036101000a60001901801990921691161790526040805192909401828103601f19018352845273ffffffffffffffffffffffffffffffffffffffff998a166000908152600180835285822090825290915292909220549097169650925050505b73ffffffffffffffffffffffffffffffffffffffff841615610b2157604080517f6a88a8e9000000000000000000000000000000000000000000000000000000008152336004820152905185945073ffffffffffffffffffffffffffffffffffffffff851691636a88a8e9916024808301926000929190829003018186803b15801561097257600080fd5b505afa158015610986573d6000803e3d6000fd5b505050506040513d6000823e601f3d908101601f1916820160405260208110156109af57600080fd5b8101908080516401000000008111156109c757600080fd5b820160208101848111156109da57600080fd5b81516401000000008111828201871017156109f457600080fd5b50508051909550159250610ae69150505780826040516020018083805190602001908083835b60208310610a395780518252601f199092019160209182019101610a1a565b6001836020036101000a038019825116818451168082178552505050505050905001807f2c0000000000000000000000000000000000000000000000000000000000000081525060010182805190602001908083835b60208310610aae5780518252601f199092019160209182019101610a8f565b6001836020036101000a0380198251168184511680821785525050505050509050019250505060405160208183030381529060405290505b73ffffffffffffffffffffffffffffffffffffffff9384166000908152600160208181526040808420928452919052902054909316926108e7565b806040516020018082805190602001908083835b60208310610b545780518252601f199092019160209182019101610b35565b5181516020939093036101000a60001901801990911692169190911790527f5d0000000000000000000000000000000000000000000000000000000000000092019182525060408051808303601e190181526001909201905260005490985073ffffffffffffffffffffffffffffffffffffffff16331496505050505050505b9091565b600190565b6060610be882610dfe565b604080517f6a88a8e90000000000000000000000000000000000000000000000000000000081523360048201529051839173ffffffffffffffffffffffffffffffffffffffff831691636a88a8e991602480820192600092909190829003018186803b158015610c5757600080fd5b505afa158015610c6b573d6000803e3d6000fd5b505050506040513d6000823e601f3d908101601f191682016040526020811015610c9457600080fd5b810190808051640100000000811115610cac57600080fd5b82016020810184811115610cbf57600080fd5b8151640100000000811182820187101715610cd957600080fd5b5090979650505050505050565b60005473ffffffffffffffffffffffffffffffffffffffff163314610d56576040517f08c379a00000000000000000000000000000000000000000000000000000000081526004018080602001828103825260258152602001806134af6025913960400191505060405180910390fd5b565b73ffffffffffffffffffffffffffffffffffffffff908116600081815260208481526040808320838052808352818420805473ffffffffffffffffffffffffffffffffffffffff199081169091558784528285206001808752818652848720805494875285882080548516958b16959095179094558354909816865297845282852085805284529184208054831686179055949092529390935281549092169091179055565b73ffffffffffffffffffffffffffffffffffffffff818116600090815260016020818152604080842092845291905290205416151580610e6f575073ffffffffffffffffffffffffffffffffffffffff81811660009081526001602090815260408083208380529091529020541615155b80610edc575060016000527fa6eef7e35abe7026729641147f7915573c7e97b47efa546f5f6e3230263bcb496020527fccfe08badd7fbee8a36c1d2ba2b3090f679bf1a4970d307adddb9d938fc7bd725473ffffffffffffffffffffffffffffffffffffffff8281169116145b610f4757604080517f08c379a000000000000000000000000000000000000000000000000000000000815260206004820152601660248201527f50726f6a65637420646f65736e27742065786973742e00000000000000000000604482015290519081900360640190fd5b50565b73ffffffffffffffffffffffffffffffffffffffff9081166000908152602083815260408083206001808552818452828520805486805284872080548916885289875285882084895287528588208054928a1673ffffffffffffffffffffffffffffffffffffffff19938416179055805483548a1689529987528588208880528752948720805499909816988116989098179096558254871690925592525280549091169055565b6124af806110008339019056fe60806040523480156200001157600080fd5b50604051620024af380380620024af833981018060405260408110156200003757600080fd5b8151602083018051919392830192916401000000008111156200005957600080fd5b820160208101848111156200006d57600080fd5b81516401000000008111828201871017156200008857600080fd5b505060008054600160a060020a038716600160a060020a03199182161790915560018054909116331790558051909350620000cd9250600c91506020840190620000da565b505042600d55506200017f565b828054600181600116156101000203166002900490600052602060002090601f016020900481019282601f106200011d57805160ff19168380011785556200014d565b828001600101855582156200014d579182015b828111156200014d57825182559160200191906001019062000130565b506200015b9291506200015f565b5090565b6200017c91905b808211156200015b576000815560010162000166565b90565b612320806200018f6000396000f3fe608060405260043610610105576000357c0100000000000000000000000000000000000000000000000000000000900480637143059f116100a7578063dfafe10f11610076578063dfafe10f14610398578063ea8a1af0146103be578063eb9b9b64146103c6578063f60caf641461047957610105565b80637143059f146102f857806388fe2c8014610355578063b211e50414610388578063c7dea2f21461039057610105565b80632fa81692116100e35780632fa81692146101e85780634bb278f3146101fd57806366605ba4146102125780636a88a8e9146102c557610105565b806318f7907c1461010a578063195ec9ee146101215780631c7bec9d146101ab575b600080fd5b34801561011657600080fd5b5061011f61048e565b005b34801561012d57600080fd5b506101366105ab565b6040805160208082528351818301528351919283929083019185019080838360005b83811015610170578181015183820152602001610158565b50505050905090810190601f16801561019d5780820380516001836020036101000a031916815260200191505b509250505060405180910390f35b3480156101b757600080fd5b506101c06105e2565b60408051600160a060020a039094168452602084019290925282820152519081900360600190f35b3480156101f457600080fd5b5061013661060b565b34801561020957600080fd5b5061011f6106a5565b34801561021e57600080fd5b5061011f6004803603602081101561023557600080fd5b81019060208101813564010000000081111561025057600080fd5b82018360208201111561026257600080fd5b8035906020019184600183028401116401000000008311171561028457600080fd5b91908080601f01602080910402602001604051908101604052809392919081815260200183838082843760009201919091525092955061070d945050505050565b3480156102d157600080fd5b50610136600480360360208110156102e857600080fd5b5035600160a060020a0316610878565b34801561030457600080fd5b5061032b6004803603602081101561031b57600080fd5b5035600160a060020a03166108de565b60408051600160a060020a0390941684526020840192909252151582820152519081900360600190f35b34801561036157600080fd5b5061011f6004803603602081101561037857600080fd5b5035600160a060020a0316610926565b61011f610a30565b61011f610ae1565b61011f600480360360208110156103ae57600080fd5b5035600160a060020a0316610bf1565b61011f610d77565b3480156103d257600080fd5b5061011f600480360360208110156103e957600080fd5b81019060208101813564010000000081111561040457600080fd5b82018360208201111561041657600080fd5b8035906020019184600183028401116401000000008311171561043857600080fd5b91908080601f016020809104026020016040519081016040528093929190818152602001838380828437600092019190915250929550610ddc945050505050565b34801561048557600080fd5b5061011f611014565b6104973361104b565b61049f6110bd565b6104a761111d565b600854600160a060020a03163314156104f9576040516000805160206121a883398151915281526004018080602001828103825260238152602001806121856023913960400191505060405180910390fd5b3360009081526009602052604090205460ff161561056657604080516000805160206121a8833981519152815260206004820152601260248201527f596f7520616c726561647920766f7465642e0000000000000000000000000000604482015290519081900360640190fd5b336000908152600960205260409020805460ff19166001908117909155600a54600b54909101141561059f5761059a611182565b6105a9565b600b805460010190555b565b60606105b5611253565b600754156105ce576105c760026112d2565b90506105df565b506040805160208101909152600081525b90565b60008060006105ef611253565b5050600854600b54600a54600160a060020a0390921692509192565b6060610615611253565b6005805460408051602060026001851615610100026000190190941693909304601f8101849004840282018401909252818152929183018282801561069b5780601f106106705761010080835404028352916020019161069b565b820191906000526020600020905b81548152906001019060200180831161067e57829003601f168201915b5050505050905090565b6106ad611452565b6106b56110bd565b6000600754116106fe576040516000805160206121a8833981519152815260040180806020018281038252603c815260200180612116603c913960400191505060405180910390fd5b6006805460ff19166001179055565b6107156114a3565b61071d6110bd565b806040516020018082805190602001908083835b602083106107505780518252601f199092019160209182019101610731565b6001836020036101000a03801982511681845116808217855250505050505090500191505060405160208183030381529060405280519060200120600c60405160200180828054600181600116156101000203166002900480156107eb5780601f106107c95761010080835404028352918201916107eb565b820191906000526020600020905b8154815290600101906020018083116107d7575b505091505060405160208183030381529060405280519060200120141561086157604080516000805160206121a8833981519152815260206004820152601b60248201527f4e6577206e616d65206d75737420626520646966666572656e742e0000000000604482015290519081900360640190fd5b805161087490600c906020840190612021565b5050565b6060610882611452565b600160a060020a0382166000908152600360205260409020541515806108b55750600054600160a060020a038381169116145b6108ce57604051806020016040528060008152506108d6565b6108d66114f4565b90505b919050565b60008060006108eb611253565b6108f48461104b565b505050600160a060020a0381166000908152600360209081526040808320546004909252909120549192909160ff1690565b61092e6114a3565b6109366110bd565b61093f8161104b565b600854600160a060020a03161561098f576040516000805160206121a8833981519152815260040180806020018281038252602581526020018061229a6025913960400191505060405180910390fd5b6001600754116109d8576040516000805160206121a883398151915281526004018080602001828103825260338152602001806121526033913960400191505060405180910390fd5b6008805473ffffffffffffffffffffffffffffffffffffffff1916600160a060020a0383161790556000600b55600754600210610a19576001600a55610a2d565b600260075481610a2557fe5b04600101600a555b50565b610a393361104b565b610a416110bd565b600854600160a060020a0316331480610a635750600854600160a060020a0316155b610aa6576040516000805160206121a883398151915281526004018080602001828103825260258152602001806121fe6025913960400191505060405180910390fd5b610aaf336119ae565b600854600160a060020a03163314156105a9576008805473ffffffffffffffffffffffffffffffffffffffff19169055565b610aea3361104b565b60065460ff161515600114610b4e57604080516000805160206121a8833981519152815260206004820152601f60248201527f54686520636f6e7472616374206973206e6f7420636c6f736564207965742e00604482015290519081900360640190fd5b3360009081526004602052604090205460ff1615610ba5576040516000805160206121a883398151915281526004018080602001828103825260218152602001806120f56021913960400191505060405180910390fd5b336000818152600460209081526040808320805460ff19166001179055600390915280822054905181156108fc0292818181858888f19350505050158015610a2d573d6000803e3d6000fd5b610bf96114a3565b600054600160a060020a0382811691161415610c4e576040516000805160206121a883398151915281526004018080602001828103825260218152602001806122236021913960400191505060405180910390fd5b610c566110bd565b600160a060020a03811660009081526003602052604090205415610cc957604080516000805160206121a8833981519152815260206004820181905260248201527f54686973207061727469636970616e7420616c7265616479206578697374732e604482015290519081900360640190fd5b60003411610d10576040516000805160206121a883398151915281526004018080602001828103825260318152602001806122446031913960400191505060405180910390fd5b610d1b600282611a7a565b600160a060020a038116600081815260036020908152604091829020349055600780546001019055815192835290517f81ce87e9132816a35411c8f152ffde419a1591d091da31f921cc727f6f9ca8349281900390910190a150565b610d7f611452565b610d876110bd565b60075415610dce576040516000805160206121a8833981519152815260040180806020018281038252603b8152602001806120ba603b913960400191505060405180910390fd5b600054600160a060020a0316ff5b610de46114a3565b610dec6110bd565b60056040516020018082805460018160011615610100020316600290048015610e4c5780601f10610e2a576101008083540402835291820191610e4c565b820191906000526020600020905b815481529060010190602001808311610e38575b505091505060405160208183030381529060405280519060200120816040516020018082805190602001908083835b60208310610e9a5780518252601f199092019160209182019101610e7b565b6001836020036101000a038019825116818451168082178552505050505050905001915050604051602081830303815290604052805190602001201415610f3057604080516000805160206121a8833981519152815260206004820152601c60248201527f46696c652068617368206d75737420626520646966666572656e742e00000000604482015290519081900360640190fd5b8051610f43906005906020840190612021565b508051610f78576040517f11f4bfed41fe6bdbd68ba6be4633e5100162a074e8fbaec1bbbdc6f5820e525590600090a1610a2d565b7fb957499a7658fda76a577d75c1d04db8f5231823087af49c0da0691520dd9027816040518080602001828103825283818151815260200191508051906020019080838360005b83811015610fd7578181015183820152602001610fbf565b50505050905090810190601f1680156110045780820380516001836020036101000a031916815260200191505b509250505060405180910390a150565b61101c6114a3565b6110246110bd565b61102c61111d565b6008805473ffffffffffffffffffffffffffffffffffffffff19169055565b600160a060020a038116600090815260036020526040902054610a2d57604080516000805160206121a8833981519152815260206004820152601f60248201527f54686973207061727469636970616e7420646f65736e27742065786973742e00604482015290519081900360640190fd5b60065460ff16156105a957604080516000805160206121a8833981519152815260206004820152601f60248201527f54686520636f6e747261637420697320616c726561647920636c6f7365642e00604482015290519081900360640190fd5b600854600160a060020a03166105a957604080516000805160206121a8833981519152815260206004820181905260248201527f54686572652069736e2774206120766f74696e6720696e2070726f636573732e604482015290519081900360640190fd5b60085461119790600160a060020a03166119ae565b6008805473ffffffffffffffffffffffffffffffffffffffff1916905560016000527fac33ff75c19e70fe83507db0d683fd3465c996598dc972688b7ace676c89077b6020527f79c06e8c99a667adda63c5fa6f05695d29630fc62ad2dd069fa929d5714de89d54600160a060020a03165b600160a060020a03811615610a2d57600160a060020a039081166000908152600960209081526040808320805460ff19169055600282528083206001845290915290205416611209565b600054600160a060020a03163314806112765750600154600160a060020a031633145b8061128f57503360009081526003602052604090205415155b6105a9576040516000805160206121a883398151915281526004018080602001828103825260368152602001806122bf6036913960400191505060405180910390fd5b60008080526020828152604080832060018452909152902054606090600160a060020a03168161130182611b13565b600160a060020a03928316600090815260208681526040808320600184529091529020549092169190505b600160a060020a0382161561144b578061134583611b13565b6040516020018083805190602001908083835b602083106113775780518252601f199092019160209182019101611358565b6001836020036101000a038019825116818451168082178552505050505050905001807f2c0000000000000000000000000000000000000000000000000000000000000081525060010182805190602001908083835b602083106113ec5780518252601f1990920191602091820191016113cd565b51815160209384036101000a60001901801990921691161790526040805192909401828103601f190183528452600160a060020a0398891660009081528b82528481206001825290915292909220549096169550935061132c92505050565b9392505050565b600154600160a060020a031633146105a9576040516000805160206121a883398151915281526004018080602001828103825260368152602001806121c86036913960400191505060405180910390fd5b600054600160a060020a031633146105a9576040516000805160206121a883398151915281526004018080602001828103825260258152602001806122756025913960400191505060405180910390fd5b60608061150030611b13565b905080600c611510600d54611e78565b61151b600754611e78565b60065460ff161515600114611565576040518060400160405280600581526020017f66616c736500000000000000000000000000000000000000000000000000000081525061159c565b6040518060400160405280600481526020017f74727565000000000000000000000000000000000000000000000000000000008152505b600854600160a060020a03166115e7576040518060400160405280600581526020017f66616c73650000000000000000000000000000000000000000000000000000008152506115fc565b6008546115fc90600160a060020a0316611b13565b6040517f7b0000000000000000000000000000000000000000000000000000000000000060208083019182527f2261646472657373223a2022000000000000000000000000000000000000000060218401528851600593602d01918a01908083835b6020831061167d5780518252601f19909201916020918201910161165e565b6001836020036101000a038019825116818451168082178552505050505050905001807f222c226e616d6522203a20220000000000000000000000000000000000000000815250600c018780546001816001161561010002031660029004801561171e5780601f106116fc57610100808354040283529182019161171e565b820191906000526020600020905b81548152906001019060200180831161170a575b5050807f222c2263726561746564417422203a200000000000000000000000000000000081525060100186805190602001908083835b602083106117735780518252601f199092019160209182019101611754565b51815160209384036101000a60001901801990921691161790527f2c227061727469636970616e747322203a200000000000000000000000000000919093019081528751601290910192880191508083835b602083106117e45780518252601f1990920191602091820191016117c5565b51815160209384036101000a60001901801990921691161790527f2c22697350726f6a656374436c6f73656422203a200000000000000000000000919093019081528651601590910192870191508083835b602083106118555780518252601f199092019160209182019101611836565b51815160209384036101000a60001901801990921691161790527f2c22766f6e74696e67496e50726f6365737322203a2022000000000000000000919093019081528551601790910192860191508083835b602083106118c65780518252601f1990920191602091820191016118a7565b6001836020036101000a038019825116818451168082178552505050505050905001807f222c2266696c654861736822203a202200000000000000000000000000000000815250601001828054600181600116156101000203166002900480156119675780601f10611945576101008083540402835291820191611967565b820191906000526020600020905b815481529060010190602001808311611953575b50507f227d000000000000000000000000000000000000000000000000000000000000815260408051601d1981840301815260029092019052995050505050505050505090565b600160a060020a0381166000908152600360205260409020546119d2600283611f86565b600160a060020a0380831660009081526003602090815260408083208390556009909152808220805460ff19169055600780546000190190558154905192169183156108fc0291849190818181858888f19350505050158015611a39573d6000803e3d6000fd5b5060408051600160a060020a038416815290517f97fbe3b8d610d446e4ca20761a85634ff0087955f31df0aa0eab147a3ddd36489181900360200190a15050565b600160a060020a03908116600081815260208481526040808320838052808352818420805473ffffffffffffffffffffffffffffffffffffffff199081169091558784528285206001808752818652848720805494875285882080548516958b16959095179094558354909816865297845282852085805284529184208054831686179055949092529390935281549092169091179055565b604080518082018252601081527f303132333435363738396162636465660000000000000000000000000000000060208201528151602a8082526060828101909452600160a060020a038516929184916020820181803883390190505090507f300000000000000000000000000000000000000000000000000000000000000081600081518110611ba057fe5b60200101907effffffffffffffffffffffffffffffffffffffffffffffffffffffffffffff1916908160001a9053507f780000000000000000000000000000000000000000000000000000000000000081600181518110611bfd57fe5b60200101907effffffffffffffffffffffffffffffffffffffffffffffffffffffffffffff1916908160001a90535060005b6014811015611e6f578260048583600c0160208110611c4a57fe5b1a7f0100000000000000000000000000000000000000000000000000000000000000027effffffffffffffffffffffffffffffffffffffffffffffffffffffffffffff1916908060020a82049150507f0100000000000000000000000000000000000000000000000000000000000000900460ff1681518110611cc957fe5b60200101517f010000000000000000000000000000000000000000000000000000000000000090047f010000000000000000000000000000000000000000000000000000000000000002828260020260020181518110611d2557fe5b60200101907effffffffffffffffffffffffffffffffffffffffffffffffffffffffffffff1916908160001a905350828482600c0160208110611d6457fe5b1a7f010000000000000000000000000000000000000000000000000000000000000002600f7f010000000000000000000000000000000000000000000000000000000000000002167f0100000000000000000000000000000000000000000000000000000000000000900460ff1681518110611ddc57fe5b60200101517f010000000000000000000000000000000000000000000000000000000000000090047f010000000000000000000000000000000000000000000000000000000000000002828260020260030181518110611e3857fe5b60200101907effffffffffffffffffffffffffffffffffffffffffffffffffffffffffffff1916908160001a905350600101611c2f565b50949350505050565b606081611eb9575060408051808201909152600181527f300000000000000000000000000000000000000000000000000000000000000060208201526108d9565b8160005b8115611ed157600101600a82049150611ebd565b6060816040519080825280601f01601f191660200182016040528015611efe576020820181803883390190505b50859350905060001982015b8315611e6f57600a84066030017f01000000000000000000000000000000000000000000000000000000000000000282828060019003935081518110611f4c57fe5b60200101907effffffffffffffffffffffffffffffffffffffffffffffffffffffffffffff1916908160001a905350600a84049350611f0a565b600160a060020a039081166000908152602083815260408083206001808552818452828520805486805284872080548916885289875285882084895287528588208054928a1673ffffffffffffffffffffffffffffffffffffffff19938416179055805483548a1689529987528588208880528752948720805499909816988116989098179096558254871690925592525280549091169055565b828054600181600116156101000203166002900490600052602060002090601f016020900481019282601f1061206257805160ff191683800117855561208f565b8280016001018555821561208f579182015b8281111561208f578251825591602001919060010190612074565b5061209b92915061209f565b5090565b6105df91905b8082111561209b57600081556001016120a556fe416c6c207061727469636970616e7473206d757374206c65617665206265666f72652063616e63656c6c696e672074686520636f6e74726163742e596f7520616c726561647920636c61696d656420796f7572207061796d656e742e596f752063616e27742066696e616c697a6520612070726f6a65637420776974686f757420616464696e6720616e79207061727469636970616e742e596f752063616e2774207374617274206120766f74696e672077697468206a757374206f6e65207061727469636970616e742e596f752063616e277420766f746520696e20796f7572206f776e2072656d6f76616c2e08c379a0000000000000000000000000000000000000000000000000000000004d7573742062652063616c6c65642062792074686520706172656e7420636f6e7472616374206f66207468697320636f6e7472616374546865726520697320612072656d6f76616c20766f74696e6720696e2070726f636573732e546865206f776e65722063616e27742062652061207061727469636970616e742e546865207061727469636970616e742773207061796d656e74206d7573742062652067726561746572207468616e20302e596f75206172656e277420746865206f776e6572206f66207468697320636f6e74726163745468657265206973206120766f74696e6720616c726561647920696e2070726f636573732e596f75206172656e277420746865206f776e6572206f722061207061727469636970616e74206f66207468697320636f6e7472616374a165627a7a72305820a872771cb1e96a09a68cfe33bcd59ecb6d2cc714391cd55838d80ab987b0b9480029596f75206172656e277420746865206f776e6572206f66207468697320636f6e7472616374a165627a7a72305820da461eda0357c3308700bc94afc99729a3a3e2144b3ad356548b7067770599120029",
  "source": "pragma solidity ^0.5.8;\nimport './Project.sol';\nimport './CommonUtilities.sol';\n\ncontract ProjectManager is CommonUtilities {\n    Addresses projects;\n\n    event projectAdded(address project);\n    event projectFinalized(address project);\n    event projectCancelled(address project);\n\n    constructor() CommonUtilities(msg.sender) public  {}\n\n    function projectExist(address _addr) internal view {\n        require(\n            projects.addressIndexes[_addr][NEXT] != address(0x0)||\n            projects.addressIndexes[_addr][PREV] != address(0x0)||\n            projects.addressIndexes[address(0x0)][NEXT] == _addr,\n            'Project doesn\\'t exist.'\n        );\n    }\n\n    function isPMContract() public pure\n    returns (bool isValidPMContract){\n        return true;\n    }\n\n    function addProject(string memory name) public\n    returns (address addressContract) {\n        isOwner();\n        Project p = new Project(owner, name);\n        addElement(projects, address(p));\n        emit projectAdded(address(p));\n        return address(p);\n    }\n\n    function getProjects() public view\n    returns (string memory projectsData, bool isUserOwner) {\n        if(projects.addressIndexes[address(0x0)][NEXT] == address(0x0)) {\n            return (\"[]\", msg.sender == owner);\n        }\n        address current = projects.addressIndexes[address(0x0)][NEXT];\n        Project aux = Project(current);\n        string memory data = aux.getProjectData(msg.sender);\n        string memory _addresses = string(\n            abi.encodePacked(\n                \"[\",\n                data\n            )\n        );\n        current = projects.addressIndexes[current][NEXT];\n        while (current != address(0x0)) {\n            aux = Project(current);\n            data = aux.getProjectData(msg.sender);\n            if(bytes(data).length != 0) {\n                _addresses = string(\n                    abi.encodePacked(_addresses,\",\",data)\n                );\n            }\n            current = projects.addressIndexes[current][NEXT];\n        }\n        _addresses = string(abi.encodePacked(_addresses,\"]\"));\n        return (_addresses, msg.sender == owner);\n    }\n\n    function getProject(address _project) public view\n    returns (string memory projectsData) {\n        projectExist(_project);\n        Project aux = Project(_project);\n        return aux.getProjectData(msg.sender);\n    }\n\n    function finalizeProject(address _addr) public {\n        isOwner();\n        projectExist(_addr);\n        Project p = Project(_addr);\n        p.finalize();\n        emit projectFinalized(_addr);\n    }\n\n    function deleteProject(address _addr) public {\n        isOwner();\n        projectExist(_addr);\n        Project p = Project(_addr);\n        p.cancel();\n        removeElement(projects, address(p));\n        emit projectCancelled(_addr);\n    }\n}",
  "sourcePath": "/home/ubuntu/ProjectManagerContract/contracts/ProjectManager.sol",
  "compiler": {
    "name": "solc",
    "version": "0.5.8+commit.23d335f2.Emscripten.clang"
  },
  "schemaVersion": "3.0.11",
  "updatedAt": "2019-12-03T04:39:53.004Z",
  "devdoc": {
    "methods": {}
  },
  "userdoc": {
    "methods": {}
  }
}